{
	"data": {
		"bytecode": {
			"linkReferences": {},
			"object": "608060405234801561001057600080fd5b5061027c806100206000396000f3fe608060405234801561001057600080fd5b50600436106100415760003560e01c80636a9438f114610046578063b1d5e81114610064578063f958b4db14610082575b600080fd5b61004e6100a0565b60405161005b91906101f4565b60405180910390f35b61006c6100dc565b60405161007991906101f4565b60405180910390f35b61008a610118565b60405161009791906101f4565b60405180910390f35b6100a8610154565b60405180602001604052807f50726f706f73616c204300000000000000000000000000000000000000000000815250905090565b6100e4610154565b60405180602001604052807f50726f706f73616c204100000000000000000000000000000000000000000000815250905090565b610120610154565b60405180602001604052807f50726f706f73616c204200000000000000000000000000000000000000000000815250905090565b6040518060200160405280600190602082028036833780820191505090505090565b600061018283836101e5565b60208301905092915050565b61019781610219565b6101a18184610231565b92506101ac8261020f565b8060005b838110156101dd5781516101c48782610176565b96506101cf83610224565b9250506001810190506101b0565b505050505050565b6101ee8161023c565b82525050565b6000602082019050610209600083018461018e565b92915050565b6000819050919050565b600060019050919050565b6000602082019050919050565b600081905092915050565b600081905091905056fea2646970667358221220b5ebc290848634584f392ea08ec19d073c89071c50b03e958c0f53b7be43f40f64736f6c63430008070033",
			"opcodes": "PUSH1 0x80 PUSH1 0x40 MSTORE CALLVALUE DUP1 ISZERO PUSH2 0x10 JUMPI PUSH1 0x0 DUP1 REVERT JUMPDEST POP PUSH2 0x27C DUP1 PUSH2 0x20 PUSH1 0x0 CODECOPY PUSH1 0x0 RETURN INVALID PUSH1 0x80 PUSH1 0x40 MSTORE CALLVALUE DUP1 ISZERO PUSH2 0x10 JUMPI PUSH1 0x0 DUP1 REVERT JUMPDEST POP PUSH1 0x4 CALLDATASIZE LT PUSH2 0x41 JUMPI PUSH1 0x0 CALLDATALOAD PUSH1 0xE0 SHR DUP1 PUSH4 0x6A9438F1 EQ PUSH2 0x46 JUMPI DUP1 PUSH4 0xB1D5E811 EQ PUSH2 0x64 JUMPI DUP1 PUSH4 0xF958B4DB EQ PUSH2 0x82 JUMPI JUMPDEST PUSH1 0x0 DUP1 REVERT JUMPDEST PUSH2 0x4E PUSH2 0xA0 JUMP JUMPDEST PUSH1 0x40 MLOAD PUSH2 0x5B SWAP2 SWAP1 PUSH2 0x1F4 JUMP JUMPDEST PUSH1 0x40 MLOAD DUP1 SWAP2 SUB SWAP1 RETURN JUMPDEST PUSH2 0x6C PUSH2 0xDC JUMP JUMPDEST PUSH1 0x40 MLOAD PUSH2 0x79 SWAP2 SWAP1 PUSH2 0x1F4 JUMP JUMPDEST PUSH1 0x40 MLOAD DUP1 SWAP2 SUB SWAP1 RETURN JUMPDEST PUSH2 0x8A PUSH2 0x118 JUMP JUMPDEST PUSH1 0x40 MLOAD PUSH2 0x97 SWAP2 SWAP1 PUSH2 0x1F4 JUMP JUMPDEST PUSH1 0x40 MLOAD DUP1 SWAP2 SUB SWAP1 RETURN JUMPDEST PUSH2 0xA8 PUSH2 0x154 JUMP JUMPDEST PUSH1 0x40 MLOAD DUP1 PUSH1 0x20 ADD PUSH1 0x40 MSTORE DUP1 PUSH32 0x50726F706F73616C204300000000000000000000000000000000000000000000 DUP2 MSTORE POP SWAP1 POP SWAP1 JUMP JUMPDEST PUSH2 0xE4 PUSH2 0x154 JUMP JUMPDEST PUSH1 0x40 MLOAD DUP1 PUSH1 0x20 ADD PUSH1 0x40 MSTORE DUP1 PUSH32 0x50726F706F73616C204100000000000000000000000000000000000000000000 DUP2 MSTORE POP SWAP1 POP SWAP1 JUMP JUMPDEST PUSH2 0x120 PUSH2 0x154 JUMP JUMPDEST PUSH1 0x40 MLOAD DUP1 PUSH1 0x20 ADD PUSH1 0x40 MSTORE DUP1 PUSH32 0x50726F706F73616C204200000000000000000000000000000000000000000000 DUP2 MSTORE POP SWAP1 POP SWAP1 JUMP JUMPDEST PUSH1 0x40 MLOAD DUP1 PUSH1 0x20 ADD PUSH1 0x40 MSTORE DUP1 PUSH1 0x1 SWAP1 PUSH1 0x20 DUP3 MUL DUP1 CALLDATASIZE DUP4 CALLDATACOPY DUP1 DUP3 ADD SWAP2 POP POP SWAP1 POP POP SWAP1 JUMP JUMPDEST PUSH1 0x0 PUSH2 0x182 DUP4 DUP4 PUSH2 0x1E5 JUMP JUMPDEST PUSH1 0x20 DUP4 ADD SWAP1 POP SWAP3 SWAP2 POP POP JUMP JUMPDEST PUSH2 0x197 DUP2 PUSH2 0x219 JUMP JUMPDEST PUSH2 0x1A1 DUP2 DUP5 PUSH2 0x231 JUMP JUMPDEST SWAP3 POP PUSH2 0x1AC DUP3 PUSH2 0x20F JUMP JUMPDEST DUP1 PUSH1 0x0 JUMPDEST DUP4 DUP2 LT ISZERO PUSH2 0x1DD JUMPI DUP2 MLOAD PUSH2 0x1C4 DUP8 DUP3 PUSH2 0x176 JUMP JUMPDEST SWAP7 POP PUSH2 0x1CF DUP4 PUSH2 0x224 JUMP JUMPDEST SWAP3 POP POP PUSH1 0x1 DUP2 ADD SWAP1 POP PUSH2 0x1B0 JUMP JUMPDEST POP POP POP POP POP POP JUMP JUMPDEST PUSH2 0x1EE DUP2 PUSH2 0x23C JUMP JUMPDEST DUP3 MSTORE POP POP JUMP JUMPDEST PUSH1 0x0 PUSH1 0x20 DUP3 ADD SWAP1 POP PUSH2 0x209 PUSH1 0x0 DUP4 ADD DUP5 PUSH2 0x18E JUMP JUMPDEST SWAP3 SWAP2 POP POP JUMP JUMPDEST PUSH1 0x0 DUP2 SWAP1 POP SWAP2 SWAP1 POP JUMP JUMPDEST PUSH1 0x0 PUSH1 0x1 SWAP1 POP SWAP2 SWAP1 POP JUMP JUMPDEST PUSH1 0x0 PUSH1 0x20 DUP3 ADD SWAP1 POP SWAP2 SWAP1 POP JUMP JUMPDEST PUSH1 0x0 DUP2 SWAP1 POP SWAP3 SWAP2 POP POP JUMP JUMPDEST PUSH1 0x0 DUP2 SWAP1 POP SWAP2 SWAP1 POP JUMP INVALID LOG2 PUSH5 0x6970667358 0x22 SLT KECCAK256 0xB5 0xEB 0xC2 SWAP1 DUP5 DUP7 CALLVALUE PC 0x4F CODECOPY 0x2E LOG0 DUP15 0xC1 SWAP14 SMOD EXTCODECOPY DUP10 SMOD SHR POP 0xB0 RETURNDATACOPY SWAP6 DUP13 0xF MSTORE8 0xB7 0xBE NUMBER DELEGATECALL 0xF PUSH5 0x736F6C6343 STOP ADDMOD SMOD STOP CALLER "
		},
		"gasEstimates": {
			"creation": {
				"codeDepositCost": "127200",
				"executionCost": "171",
				"totalCost": "127371"
			},
			"external": {
				"getBytesNow1()": "infinite",
				"getBytesNow2()": "infinite",
				"getBytesNow3()": "infinite"
			}
		},
		"methodIdentifiers": {
			"getBytesNow1()": "b1d5e811",
			"getBytesNow2()": "f958b4db",
			"getBytesNow3()": "6a9438f1"
		}
	},
	"abi": [
		{
			"inputs": [],
			"name": "getBytesNow1",
			"outputs": [
				{
					"internalType": "bytes32[1]",
					"name": "ba1",
					"type": "bytes32[1]"
				}
			],
			"stateMutability": "pure",
			"type": "function"
		},
		{
			"inputs": [],
			"name": "getBytesNow2",
			"outputs": [
				{
					"internalType": "bytes32[1]",
					"name": "ba2",
					"type": "bytes32[1]"
				}
			],
			"stateMutability": "pure",
			"type": "function"
		},
		{
			"inputs": [],
			"name": "getBytesNow3",
			"outputs": [
				{
					"internalType": "bytes32[1]",
					"name": "ba3",
					"type": "bytes32[1]"
				}
			],
			"stateMutability": "pure",
			"type": "function"
		}
	]
}