{
	"artifacts/getBytesDemo.sol": {
		"getBytes": {
			"abi": [
				{
					"inputs": [],
					"name": "getBytesNow1",
					"outputs": [
						{
							"internalType": "bytes32[1]",
							"name": "ba1",
							"type": "bytes32[1]"
						}
					],
					"stateMutability": "pure",
					"type": "function"
				},
				{
					"inputs": [],
					"name": "getBytesNow2",
					"outputs": [
						{
							"internalType": "bytes32[1]",
							"name": "ba2",
							"type": "bytes32[1]"
						}
					],
					"stateMutability": "pure",
					"type": "function"
				},
				{
					"inputs": [],
					"name": "getBytesNow3",
					"outputs": [
						{
							"internalType": "bytes32[1]",
							"name": "ba3",
							"type": "bytes32[1]"
						}
					],
					"stateMutability": "pure",
					"type": "function"
				}
			],
			"devdoc": {
				"kind": "dev",
				"methods": {},
				"version": 1
			},
			"evm": {
				"assembly": "    /* \"artifacts/getBytesDemo.sol\":171:564  contract getBytes {... */\n  mstore(0x40, 0x80)\n  callvalue\n  dup1\n  iszero\n  tag_1\n  jumpi\n  0x00\n  dup1\n  revert\ntag_1:\n  pop\n  dataSize(sub_0)\n  dup1\n  dataOffset(sub_0)\n  0x00\n  codecopy\n  0x00\n  return\nstop\n\nsub_0: assembly {\n        /* \"artifacts/getBytesDemo.sol\":171:564  contract getBytes {... */\n      mstore(0x40, 0x80)\n      callvalue\n      dup1\n      iszero\n      tag_1\n      jumpi\n      0x00\n      dup1\n      revert\n    tag_1:\n      pop\n      jumpi(tag_2, lt(calldatasize, 0x04))\n      shr(0xe0, calldataload(0x00))\n      dup1\n      0x6a9438f1\n      eq\n      tag_3\n      jumpi\n      dup1\n      0xb1d5e811\n      eq\n      tag_4\n      jumpi\n      dup1\n      0xf958b4db\n      eq\n      tag_5\n      jumpi\n    tag_2:\n      0x00\n      dup1\n      revert\n        /* \"artifacts/getBytesDemo.sol\":443:562  function getBytesNow3() pure public returns (bytes32[1] memory ba3) ... */\n    tag_3:\n      tag_6\n      tag_7\n      jump\t// in\n    tag_6:\n      mload(0x40)\n      tag_8\n      swap2\n      swap1\n      tag_9\n      jump\t// in\n    tag_8:\n      mload(0x40)\n      dup1\n      swap2\n      sub\n      swap1\n      return\n        /* \"artifacts/getBytesDemo.sol\":195:314  function getBytesNow1() pure public returns (bytes32[1] memory ba1) ... */\n    tag_4:\n      tag_10\n      tag_11\n      jump\t// in\n    tag_10:\n      mload(0x40)\n      tag_12\n      swap2\n      swap1\n      tag_9\n      jump\t// in\n    tag_12:\n      mload(0x40)\n      dup1\n      swap2\n      sub\n      swap1\n      return\n        /* \"artifacts/getBytesDemo.sol\":319:438  function getBytesNow2() pure public returns (bytes32[1] memory ba2) ... */\n    tag_5:\n      tag_13\n      tag_14\n      jump\t// in\n    tag_13:\n      mload(0x40)\n      tag_15\n      swap2\n      swap1\n      tag_9\n      jump\t// in\n    tag_15:\n      mload(0x40)\n      dup1\n      swap2\n      sub\n      swap1\n      return\n        /* \"artifacts/getBytesDemo.sol\":443:562  function getBytesNow3() pure public returns (bytes32[1] memory ba3) ... */\n    tag_7:\n        /* \"artifacts/getBytesDemo.sol\":488:509  bytes32[1] memory ba3 */\n      tag_16\n      tag_17\n      jump\t// in\n    tag_16:\n        /* \"artifacts/getBytesDemo.sol\":526:555  ba3 = [bytes32(\"Proposal C\")] */\n      mload(0x40)\n      dup1\n      0x20\n      add\n      0x40\n      mstore\n      dup1\n        /* \"artifacts/getBytesDemo.sol\":533:554  bytes32(\"Proposal C\") */\n      0x50726f706f73616c204300000000000000000000000000000000000000000000\n        /* \"artifacts/getBytesDemo.sol\":526:555  ba3 = [bytes32(\"Proposal C\")] */\n      dup2\n      mstore\n      pop\n      swap1\n      pop\n        /* \"artifacts/getBytesDemo.sol\":443:562  function getBytesNow3() pure public returns (bytes32[1] memory ba3) ... */\n      swap1\n      jump\t// out\n        /* \"artifacts/getBytesDemo.sol\":195:314  function getBytesNow1() pure public returns (bytes32[1] memory ba1) ... */\n    tag_11:\n        /* \"artifacts/getBytesDemo.sol\":240:261  bytes32[1] memory ba1 */\n      tag_19\n      tag_17\n      jump\t// in\n    tag_19:\n        /* \"artifacts/getBytesDemo.sol\":278:307  ba1 = [bytes32(\"Proposal A\")] */\n      mload(0x40)\n      dup1\n      0x20\n      add\n      0x40\n      mstore\n      dup1\n        /* \"artifacts/getBytesDemo.sol\":285:306  bytes32(\"Proposal A\") */\n      0x50726f706f73616c204100000000000000000000000000000000000000000000\n        /* \"artifacts/getBytesDemo.sol\":278:307  ba1 = [bytes32(\"Proposal A\")] */\n      dup2\n      mstore\n      pop\n      swap1\n      pop\n        /* \"artifacts/getBytesDemo.sol\":195:314  function getBytesNow1() pure public returns (bytes32[1] memory ba1) ... */\n      swap1\n      jump\t// out\n        /* \"artifacts/getBytesDemo.sol\":319:438  function getBytesNow2() pure public returns (bytes32[1] memory ba2) ... */\n    tag_14:\n        /* \"artifacts/getBytesDemo.sol\":364:385  bytes32[1] memory ba2 */\n      tag_21\n      tag_17\n      jump\t// in\n    tag_21:\n        /* \"artifacts/getBytesDemo.sol\":402:431  ba2 = [bytes32(\"Proposal B\")] */\n      mload(0x40)\n      dup1\n      0x20\n      add\n      0x40\n      mstore\n      dup1\n        /* \"artifacts/getBytesDemo.sol\":409:430  bytes32(\"Proposal B\") */\n      0x50726f706f73616c204200000000000000000000000000000000000000000000\n        /* \"artifacts/getBytesDemo.sol\":402:431  ba2 = [bytes32(\"Proposal B\")] */\n      dup2\n      mstore\n      pop\n      swap1\n      pop\n        /* \"artifacts/getBytesDemo.sol\":319:438  function getBytesNow2() pure public returns (bytes32[1] memory ba2) ... */\n      swap1\n      jump\t// out\n    tag_17:\n      mload(0x40)\n      dup1\n      0x20\n      add\n      0x40\n      mstore\n      dup1\n      0x01\n      swap1\n      0x20\n      dup3\n      mul\n      dup1\n      calldatasize\n      dup4\n      calldatacopy\n      dup1\n      dup3\n      add\n      swap2\n      pop\n      pop\n      swap1\n      pop\n      pop\n      swap1\n      jump\t// out\n        /* \"#utility.yul\":7:186   */\n    tag_24:\n        /* \"#utility.yul\":76:86   */\n      0x00\n        /* \"#utility.yul\":97:143   */\n      tag_26\n        /* \"#utility.yul\":139:142   */\n      dup4\n        /* \"#utility.yul\":131:137   */\n      dup4\n        /* \"#utility.yul\":97:143   */\n      tag_27\n      jump\t// in\n    tag_26:\n        /* \"#utility.yul\":175:179   */\n      0x20\n        /* \"#utility.yul\":170:173   */\n      dup4\n        /* \"#utility.yul\":166:180   */\n      add\n        /* \"#utility.yul\":152:180   */\n      swap1\n      pop\n        /* \"#utility.yul\":7:186   */\n      swap3\n      swap2\n      pop\n      pop\n      jump\t// out\n        /* \"#utility.yul\":224:918   */\n    tag_28:\n        /* \"#utility.yul\":360:412   */\n      tag_30\n        /* \"#utility.yul\":406:411   */\n      dup2\n        /* \"#utility.yul\":360:412   */\n      tag_31\n      jump\t// in\n    tag_30:\n        /* \"#utility.yul\":428:512   */\n      tag_32\n        /* \"#utility.yul\":505:511   */\n      dup2\n        /* \"#utility.yul\":500:503   */\n      dup5\n        /* \"#utility.yul\":428:512   */\n      tag_33\n      jump\t// in\n    tag_32:\n        /* \"#utility.yul\":421:512   */\n      swap3\n      pop\n        /* \"#utility.yul\":536:590   */\n      tag_34\n        /* \"#utility.yul\":584:589   */\n      dup3\n        /* \"#utility.yul\":536:590   */\n      tag_35\n      jump\t// in\n    tag_34:\n        /* \"#utility.yul\":613:620   */\n      dup1\n        /* \"#utility.yul\":644:645   */\n      0x00\n        /* \"#utility.yul\":629:911   */\n    tag_36:\n        /* \"#utility.yul\":654:660   */\n      dup4\n        /* \"#utility.yul\":651:652   */\n      dup2\n        /* \"#utility.yul\":648:661   */\n      lt\n        /* \"#utility.yul\":629:911   */\n      iszero\n      tag_38\n      jumpi\n        /* \"#utility.yul\":730:736   */\n      dup2\n        /* \"#utility.yul\":724:737   */\n      mload\n        /* \"#utility.yul\":757:820   */\n      tag_39\n        /* \"#utility.yul\":816:819   */\n      dup8\n        /* \"#utility.yul\":801:814   */\n      dup3\n        /* \"#utility.yul\":757:820   */\n      tag_24\n      jump\t// in\n    tag_39:\n        /* \"#utility.yul\":750:820   */\n      swap7\n      pop\n        /* \"#utility.yul\":843:901   */\n      tag_40\n        /* \"#utility.yul\":894:900   */\n      dup4\n        /* \"#utility.yul\":843:901   */\n      tag_41\n      jump\t// in\n    tag_40:\n        /* \"#utility.yul\":833:901   */\n      swap3\n      pop\n        /* \"#utility.yul\":689:911   */\n      pop\n        /* \"#utility.yul\":676:677   */\n      0x01\n        /* \"#utility.yul\":673:674   */\n      dup2\n        /* \"#utility.yul\":669:678   */\n      add\n        /* \"#utility.yul\":664:678   */\n      swap1\n      pop\n        /* \"#utility.yul\":629:911   */\n      jump(tag_36)\n    tag_38:\n        /* \"#utility.yul\":633:647   */\n      pop\n        /* \"#utility.yul\":336:918   */\n      pop\n      pop\n      pop\n        /* \"#utility.yul\":224:918   */\n      pop\n      pop\n      jump\t// out\n        /* \"#utility.yul\":924:1032   */\n    tag_27:\n        /* \"#utility.yul\":1001:1025   */\n      tag_43\n        /* \"#utility.yul\":1019:1024   */\n      dup2\n        /* \"#utility.yul\":1001:1025   */\n      tag_44\n      jump\t// in\n    tag_43:\n        /* \"#utility.yul\":996:999   */\n      dup3\n        /* \"#utility.yul\":989:1026   */\n      mstore\n        /* \"#utility.yul\":924:1032   */\n      pop\n      pop\n      jump\t// out\n        /* \"#utility.yul\":1038:1352   */\n    tag_9:\n        /* \"#utility.yul\":1177:1181   */\n      0x00\n        /* \"#utility.yul\":1215:1217   */\n      0x20\n        /* \"#utility.yul\":1204:1213   */\n      dup3\n        /* \"#utility.yul\":1200:1218   */\n      add\n        /* \"#utility.yul\":1192:1218   */\n      swap1\n      pop\n        /* \"#utility.yul\":1228:1345   */\n      tag_46\n        /* \"#utility.yul\":1342:1343   */\n      0x00\n        /* \"#utility.yul\":1331:1340   */\n      dup4\n        /* \"#utility.yul\":1327:1344   */\n      add\n        /* \"#utility.yul\":1318:1324   */\n      dup5\n        /* \"#utility.yul\":1228:1345   */\n      tag_28\n      jump\t// in\n    tag_46:\n        /* \"#utility.yul\":1038:1352   */\n      swap3\n      swap2\n      pop\n      pop\n      jump\t// out\n        /* \"#utility.yul\":1358:1456   */\n    tag_35:\n        /* \"#utility.yul\":1423:1427   */\n      0x00\n        /* \"#utility.yul\":1446:1449   */\n      dup2\n        /* \"#utility.yul\":1438:1449   */\n      swap1\n      pop\n        /* \"#utility.yul\":1358:1456   */\n      swap2\n      swap1\n      pop\n      jump\t// out\n        /* \"#utility.yul\":1462:1566   */\n    tag_31:\n        /* \"#utility.yul\":1527:1533   */\n      0x00\n        /* \"#utility.yul\":1555:1559   */\n      0x01\n        /* \"#utility.yul\":1545:1559   */\n      swap1\n      pop\n        /* \"#utility.yul\":1462:1566   */\n      swap2\n      swap1\n      pop\n      jump\t// out\n        /* \"#utility.yul\":1572:1683   */\n    tag_41:\n        /* \"#utility.yul\":1640:1644   */\n      0x00\n        /* \"#utility.yul\":1672:1676   */\n      0x20\n        /* \"#utility.yul\":1667:1670   */\n      dup3\n        /* \"#utility.yul\":1663:1677   */\n      add\n        /* \"#utility.yul\":1655:1677   */\n      swap1\n      pop\n        /* \"#utility.yul\":1572:1683   */\n      swap2\n      swap1\n      pop\n      jump\t// out\n        /* \"#utility.yul\":1689:1832   */\n    tag_33:\n        /* \"#utility.yul\":1786:1797   */\n      0x00\n        /* \"#utility.yul\":1823:1826   */\n      dup2\n        /* \"#utility.yul\":1808:1826   */\n      swap1\n      pop\n        /* \"#utility.yul\":1689:1832   */\n      swap3\n      swap2\n      pop\n      pop\n      jump\t// out\n        /* \"#utility.yul\":1838:1915   */\n    tag_44:\n        /* \"#utility.yul\":1875:1882   */\n      0x00\n        /* \"#utility.yul\":1904:1909   */\n      dup2\n        /* \"#utility.yul\":1893:1909   */\n      swap1\n      pop\n        /* \"#utility.yul\":1838:1915   */\n      swap2\n      swap1\n      pop\n      jump\t// out\n\n    auxdata: 0xa2646970667358221220bcd10e955df3e611e0abb0bb3fdc8edddfdc35e94071109d0f9be083c9a1eede64736f6c63430008070033\n}\n",
				"bytecode": {
					"linkReferences": {},
					"object": "608060405234801561001057600080fd5b5061027c806100206000396000f3fe608060405234801561001057600080fd5b50600436106100415760003560e01c80636a9438f114610046578063b1d5e81114610064578063f958b4db14610082575b600080fd5b61004e6100a0565b60405161005b91906101f4565b60405180910390f35b61006c6100dc565b60405161007991906101f4565b60405180910390f35b61008a610118565b60405161009791906101f4565b60405180910390f35b6100a8610154565b60405180602001604052807f50726f706f73616c204300000000000000000000000000000000000000000000815250905090565b6100e4610154565b60405180602001604052807f50726f706f73616c204100000000000000000000000000000000000000000000815250905090565b610120610154565b60405180602001604052807f50726f706f73616c204200000000000000000000000000000000000000000000815250905090565b6040518060200160405280600190602082028036833780820191505090505090565b600061018283836101e5565b60208301905092915050565b61019781610219565b6101a18184610231565b92506101ac8261020f565b8060005b838110156101dd5781516101c48782610176565b96506101cf83610224565b9250506001810190506101b0565b505050505050565b6101ee8161023c565b82525050565b6000602082019050610209600083018461018e565b92915050565b6000819050919050565b600060019050919050565b6000602082019050919050565b600081905092915050565b600081905091905056fea2646970667358221220bcd10e955df3e611e0abb0bb3fdc8edddfdc35e94071109d0f9be083c9a1eede64736f6c63430008070033",
					"opcodes": "PUSH1 0x80 PUSH1 0x40 MSTORE CALLVALUE DUP1 ISZERO PUSH2 0x10 JUMPI PUSH1 0x0 DUP1 REVERT JUMPDEST POP PUSH2 0x27C DUP1 PUSH2 0x20 PUSH1 0x0 CODECOPY PUSH1 0x0 RETURN INVALID PUSH1 0x80 PUSH1 0x40 MSTORE CALLVALUE DUP1 ISZERO PUSH2 0x10 JUMPI PUSH1 0x0 DUP1 REVERT JUMPDEST POP PUSH1 0x4 CALLDATASIZE LT PUSH2 0x41 JUMPI PUSH1 0x0 CALLDATALOAD PUSH1 0xE0 SHR DUP1 PUSH4 0x6A9438F1 EQ PUSH2 0x46 JUMPI DUP1 PUSH4 0xB1D5E811 EQ PUSH2 0x64 JUMPI DUP1 PUSH4 0xF958B4DB EQ PUSH2 0x82 JUMPI JUMPDEST PUSH1 0x0 DUP1 REVERT JUMPDEST PUSH2 0x4E PUSH2 0xA0 JUMP JUMPDEST PUSH1 0x40 MLOAD PUSH2 0x5B SWAP2 SWAP1 PUSH2 0x1F4 JUMP JUMPDEST PUSH1 0x40 MLOAD DUP1 SWAP2 SUB SWAP1 RETURN JUMPDEST PUSH2 0x6C PUSH2 0xDC JUMP JUMPDEST PUSH1 0x40 MLOAD PUSH2 0x79 SWAP2 SWAP1 PUSH2 0x1F4 JUMP JUMPDEST PUSH1 0x40 MLOAD DUP1 SWAP2 SUB SWAP1 RETURN JUMPDEST PUSH2 0x8A PUSH2 0x118 JUMP JUMPDEST PUSH1 0x40 MLOAD PUSH2 0x97 SWAP2 SWAP1 PUSH2 0x1F4 JUMP JUMPDEST PUSH1 0x40 MLOAD DUP1 SWAP2 SUB SWAP1 RETURN JUMPDEST PUSH2 0xA8 PUSH2 0x154 JUMP JUMPDEST PUSH1 0x40 MLOAD DUP1 PUSH1 0x20 ADD PUSH1 0x40 MSTORE DUP1 PUSH32 0x50726F706F73616C204300000000000000000000000000000000000000000000 DUP2 MSTORE POP SWAP1 POP SWAP1 JUMP JUMPDEST PUSH2 0xE4 PUSH2 0x154 JUMP JUMPDEST PUSH1 0x40 MLOAD DUP1 PUSH1 0x20 ADD PUSH1 0x40 MSTORE DUP1 PUSH32 0x50726F706F73616C204100000000000000000000000000000000000000000000 DUP2 MSTORE POP SWAP1 POP SWAP1 JUMP JUMPDEST PUSH2 0x120 PUSH2 0x154 JUMP JUMPDEST PUSH1 0x40 MLOAD DUP1 PUSH1 0x20 ADD PUSH1 0x40 MSTORE DUP1 PUSH32 0x50726F706F73616C204200000000000000000000000000000000000000000000 DUP2 MSTORE POP SWAP1 POP SWAP1 JUMP JUMPDEST PUSH1 0x40 MLOAD DUP1 PUSH1 0x20 ADD PUSH1 0x40 MSTORE DUP1 PUSH1 0x1 SWAP1 PUSH1 0x20 DUP3 MUL DUP1 CALLDATASIZE DUP4 CALLDATACOPY DUP1 DUP3 ADD SWAP2 POP POP SWAP1 POP POP SWAP1 JUMP JUMPDEST PUSH1 0x0 PUSH2 0x182 DUP4 DUP4 PUSH2 0x1E5 JUMP JUMPDEST PUSH1 0x20 DUP4 ADD SWAP1 POP SWAP3 SWAP2 POP POP JUMP JUMPDEST PUSH2 0x197 DUP2 PUSH2 0x219 JUMP JUMPDEST PUSH2 0x1A1 DUP2 DUP5 PUSH2 0x231 JUMP JUMPDEST SWAP3 POP PUSH2 0x1AC DUP3 PUSH2 0x20F JUMP JUMPDEST DUP1 PUSH1 0x0 JUMPDEST DUP4 DUP2 LT ISZERO PUSH2 0x1DD JUMPI DUP2 MLOAD PUSH2 0x1C4 DUP8 DUP3 PUSH2 0x176 JUMP JUMPDEST SWAP7 POP PUSH2 0x1CF DUP4 PUSH2 0x224 JUMP JUMPDEST SWAP3 POP POP PUSH1 0x1 DUP2 ADD SWAP1 POP PUSH2 0x1B0 JUMP JUMPDEST POP POP POP POP POP POP JUMP JUMPDEST PUSH2 0x1EE DUP2 PUSH2 0x23C JUMP JUMPDEST DUP3 MSTORE POP POP JUMP JUMPDEST PUSH1 0x0 PUSH1 0x20 DUP3 ADD SWAP1 POP PUSH2 0x209 PUSH1 0x0 DUP4 ADD DUP5 PUSH2 0x18E JUMP JUMPDEST SWAP3 SWAP2 POP POP JUMP JUMPDEST PUSH1 0x0 DUP2 SWAP1 POP SWAP2 SWAP1 POP JUMP JUMPDEST PUSH1 0x0 PUSH1 0x1 SWAP1 POP SWAP2 SWAP1 POP JUMP JUMPDEST PUSH1 0x0 PUSH1 0x20 DUP3 ADD SWAP1 POP SWAP2 SWAP1 POP JUMP JUMPDEST PUSH1 0x0 DUP2 SWAP1 POP SWAP3 SWAP2 POP POP JUMP JUMPDEST PUSH1 0x0 DUP2 SWAP1 POP SWAP2 SWAP1 POP JUMP INVALID LOG2 PUSH5 0x6970667358 0x22 SLT KECCAK256 0xBC 0xD1 0xE SWAP6 0x5D RETURN 0xE6 GT 0xE0 0xAB 0xB0 0xBB EXTCODEHASH 0xDC DUP15 0xDD 0xDF 0xDC CALLDATALOAD 0xE9 BLOCKHASH PUSH18 0x109D0F9BE083C9A1EEDE64736F6C63430008 SMOD STOP CALLER "
				},
				"gasEstimates": {
					"creation": {
						"codeDepositCost": "127200",
						"executionCost": "171",
						"totalCost": "127371"
					},
					"external": {
						"getBytesNow1()": "infinite",
						"getBytesNow2()": "infinite",
						"getBytesNow3()": "infinite"
					}
				},
				"methodIdentifiers": {
					"getBytesNow1()": "b1d5e811",
					"getBytesNow2()": "f958b4db",
					"getBytesNow3()": "6a9438f1"
				}
			},
			"storageLayout": {
				"storage": [],
				"types": null
			},
			"userdoc": {
				"kind": "user",
				"methods": {},
				"version": 1
			}
		}
	}
}